{
  "_format": "hh-sol-artifact-1",
  "contractName": "GameplayLogic",
  "sourceName": "contracts/GameplayLogic.sol",
  "abi": [
    {
      "inputs": [
        {
          "internalType": "address",
          "name": "_graceToken",
          "type": "address"
        },
        {
          "internalType": "address",
          "name": "_sacredItems",
          "type": "address"
        },
        {
          "internalType": "address",
          "name": "_holyRelics",
          "type": "address"
        },
        {
          "internalType": "address",
          "name": "_daoTreasury",
          "type": "address"
        },
        {
          "internalType": "address",
          "name": "_devWallet",
          "type": "address"
        }
      ],
      "stateMutability": "nonpayable",
      "type": "constructor"
    },
    {
      "inputs": [
        {
          "internalType": "address",
          "name": "owner",
          "type": "address"
        }
      ],
      "name": "OwnableInvalidOwner",
      "type": "error"
    },
    {
      "inputs": [
        {
          "internalType": "address",
          "name": "account",
          "type": "address"
        }
      ],
      "name": "OwnableUnauthorizedAccount",
      "type": "error"
    },
    {
      "anonymous": false,
      "inputs": [
        {
          "indexed": true,
          "internalType": "address",
          "name": "player",
          "type": "address"
        },
        {
          "indexed": true,
          "internalType": "uint256",
          "name": "recipeId",
          "type": "uint256"
        },
        {
          "indexed": true,
          "internalType": "uint256",
          "name": "resultTokenId",
          "type": "uint256"
        },
        {
          "indexed": false,
          "internalType": "bool",
          "name": "success",
          "type": "bool"
        }
      ],
      "name": "Crafted",
      "type": "event"
    },
    {
      "anonymous": false,
      "inputs": [
        {
          "indexed": false,
          "internalType": "uint256",
          "name": "total",
          "type": "uint256"
        },
        {
          "indexed": false,
          "internalType": "uint256",
          "name": "daoAmount",
          "type": "uint256"
        },
        {
          "indexed": false,
          "internalType": "uint256",
          "name": "devAmount",
          "type": "uint256"
        }
      ],
      "name": "FundsDistributed",
      "type": "event"
    },
    {
      "anonymous": false,
      "inputs": [
        {
          "indexed": true,
          "internalType": "address",
          "name": "previousOwner",
          "type": "address"
        },
        {
          "indexed": true,
          "internalType": "address",
          "name": "newOwner",
          "type": "address"
        }
      ],
      "name": "OwnershipTransferred",
      "type": "event"
    },
    {
      "inputs": [],
      "name": "DAO_SHARE_BP",
      "outputs": [
        {
          "internalType": "uint256",
          "name": "",
          "type": "uint256"
        }
      ],
      "stateMutability": "view",
      "type": "function"
    },
    {
      "inputs": [
        {
          "internalType": "uint256[]",
          "name": "itemIds",
          "type": "uint256[]"
        },
        {
          "internalType": "uint256[]",
          "name": "amounts",
          "type": "uint256[]"
        },
        {
          "internalType": "uint256",
          "name": "graceCost",
          "type": "uint256"
        },
        {
          "internalType": "enum HolyRelics.Rarity",
          "name": "rarity",
          "type": "uint8"
        },
        {
          "internalType": "uint256",
          "name": "power",
          "type": "uint256"
        },
        {
          "internalType": "string",
          "name": "uri",
          "type": "string"
        },
        {
          "internalType": "uint256",
          "name": "successRateBp",
          "type": "uint256"
        }
      ],
      "name": "addRecipe",
      "outputs": [],
      "stateMutability": "nonpayable",
      "type": "function"
    },
    {
      "inputs": [
        {
          "internalType": "uint256",
          "name": "recipeId",
          "type": "uint256"
        }
      ],
      "name": "craft",
      "outputs": [],
      "stateMutability": "nonpayable",
      "type": "function"
    },
    {
      "inputs": [],
      "name": "daoTreasury",
      "outputs": [
        {
          "internalType": "address",
          "name": "",
          "type": "address"
        }
      ],
      "stateMutability": "view",
      "type": "function"
    },
    {
      "inputs": [],
      "name": "devWallet",
      "outputs": [
        {
          "internalType": "address",
          "name": "",
          "type": "address"
        }
      ],
      "stateMutability": "view",
      "type": "function"
    },
    {
      "inputs": [],
      "name": "graceToken",
      "outputs": [
        {
          "internalType": "contract GraceToken",
          "name": "",
          "type": "address"
        }
      ],
      "stateMutability": "view",
      "type": "function"
    },
    {
      "inputs": [],
      "name": "holyRelics",
      "outputs": [
        {
          "internalType": "contract HolyRelics",
          "name": "",
          "type": "address"
        }
      ],
      "stateMutability": "view",
      "type": "function"
    },
    {
      "inputs": [],
      "name": "owner",
      "outputs": [
        {
          "internalType": "address",
          "name": "",
          "type": "address"
        }
      ],
      "stateMutability": "view",
      "type": "function"
    },
    {
      "inputs": [],
      "name": "recipeCount",
      "outputs": [
        {
          "internalType": "uint256",
          "name": "",
          "type": "uint256"
        }
      ],
      "stateMutability": "view",
      "type": "function"
    },
    {
      "inputs": [
        {
          "internalType": "uint256",
          "name": "",
          "type": "uint256"
        }
      ],
      "name": "recipes",
      "outputs": [
        {
          "internalType": "uint256",
          "name": "graceCost",
          "type": "uint256"
        },
        {
          "internalType": "enum HolyRelics.Rarity",
          "name": "resultRarity",
          "type": "uint8"
        },
        {
          "internalType": "uint256",
          "name": "resultPower",
          "type": "uint256"
        },
        {
          "internalType": "string",
          "name": "resultUri",
          "type": "string"
        },
        {
          "internalType": "uint256",
          "name": "successRateBp",
          "type": "uint256"
        }
      ],
      "stateMutability": "view",
      "type": "function"
    },
    {
      "inputs": [],
      "name": "renounceOwnership",
      "outputs": [],
      "stateMutability": "nonpayable",
      "type": "function"
    },
    {
      "inputs": [],
      "name": "sacredItems",
      "outputs": [
        {
          "internalType": "contract SacredItems",
          "name": "",
          "type": "address"
        }
      ],
      "stateMutability": "view",
      "type": "function"
    },
    {
      "inputs": [
        {
          "internalType": "address",
          "name": "newOwner",
          "type": "address"
        }
      ],
      "name": "transferOwnership",
      "outputs": [],
      "stateMutability": "nonpayable",
      "type": "function"
    }
  ],
  "bytecode": "0x60806040523480156200001157600080fd5b50604051620012ca380380620012ca833981016040819052620000349162000137565b33806200005b57604051631e4fbdf760e01b81526000600482015260240160405180910390fd5b6200006681620000ca565b50600180546001600160a01b03199081166001600160a01b03978816179091556002805482169587169590951790945560038054851693861693909317909255600480548416918516919091179055600580549092169216919091179055620001a7565b600080546001600160a01b038381166001600160a01b0319831681178455604051919092169283917f8be0079c531659141344cd1fd0a4f28419497f9722a3daafe3b4186f6b6457e09190a35050565b80516001600160a01b03811681146200013257600080fd5b919050565b600080600080600060a086880312156200015057600080fd5b6200015b866200011a565b94506200016b602087016200011a565b93506200017b604087016200011a565b92506200018b606087016200011a565b91506200019b608087016200011a565b90509295509295909350565b61111380620001b76000396000f3fe608060405234801561001057600080fd5b50600436106100cf5760003560e01c80638da5cb5b1161008c578063ca9332e711610066578063ca9332e71461019c578063e40e5ec4146101af578063f2fde38b146101c2578063f3917bd2146101d557600080fd5b80638da5cb5b146101655780638ea5220f14610176578063b803c6f81461018957600080fd5b80633f38e135146100d4578063443c227c146100f057806369cfdf7414610114578063715018a61461011d57806379022a9f146101275780637e43c77d14610152575b600080fd5b6100dd61138881565b6040519081526020015b60405180910390f35b6101036100fe366004610b03565b6101e8565b6040516100e7959493929190610b9a565b6100dd60075481565b6101256102a8565b005b60045461013a906001600160a01b031681565b6040516001600160a01b0390911681526020016100e7565b60015461013a906001600160a01b031681565b6000546001600160a01b031661013a565b60055461013a906001600160a01b031681565b610125610197366004610d0f565b6102bc565b60035461013a906001600160a01b031681565b60025461013a906001600160a01b031681565b6101256101d0366004610dcd565b61041e565b6101256101e3366004610b03565b61045c565b6006602052600090815260409020600281015460038201546004830154600584018054939460ff9093169391929161021f90610dfd565b80601f016020809104026020016040519081016040528092919081815260200182805461024b90610dfd565b80156102985780601f1061026d57610100808354040283529160200191610298565b820191906000526020600020905b81548152906001019060200180831161027b57829003601f168201915b5050505050908060060154905085565b6102b06108bd565b6102ba60006108ea565b565b6102c46108bd565b85518751146103135760405162461bcd60e51b8152602060048201526016602482015275082e4e4c2f2e640d8cadccee8d040dad2e6dac2e8c6d60531b60448201526064015b60405180910390fd5b6040518060e0016040528088815260200187815260200186815260200185600281111561034257610342610b1c565b81526020808201869052604080830186905260609092018490526007546000908152600682529190912082518051919261038192849290910190610aa3565b50602082810151805161039a9260018501920190610aa3565b506040820151816002015560608201518160030160006101000a81548160ff021916908360028111156103cf576103cf610b1c565b02179055506080820151600482015560a082015160058201906103f29082610e87565b5060c091909101516006909101556007805490600061041083610f5d565b919050555050505050505050565b6104266108bd565b6001600160a01b03811661045057604051631e4fbdf760e01b81526000600482015260240161030a565b610459816108ea565b50565b6000818152600660209081526040808320815181546101009481028201850190935260e081018381529093919284928491908401828280156104bd57602002820191906000526020600020905b8154815260200190600101908083116104a9575b505050505081526020016001820180548060200260200160405190810160405280929190818152602001828054801561051557602002820191906000526020600020905b815481526020019060010190808311610501575b50505091835250506002828101546020830152600383015460409092019160ff169081111561054657610546610b1c565b600281111561055757610557610b1c565b81526020016004820154815260200160058201805461057590610dfd565b80601f01602080910402602001604051908101604052809291908181526020018280546105a190610dfd565b80156105ee5780601f106105c3576101008083540402835291602001916105ee565b820191906000526020600020905b8154815290600101906020018083116105d157829003601f168201915b5050505050815260200160068201548152505090506000816020015151116106505760405162461bcd60e51b8152602060048201526015602482015274149958da5c1948191bd95cc81b9bdd08195e1a5cdd605a1b604482015260640161030a565b6040810151156106e95760015460408281015190516323b872dd60e01b815233600482015230602482015260448101919091526001600160a01b03909116906323b872dd906064016020604051808303816000875af11580156106b7573d6000803e3d6000fd5b505050506040513d601f19601f820116820180604052508101906106db9190610f76565b506106e9816040015161093a565b60025481516020830151604051631ac8311560e21b81526001600160a01b0390931692636b20c45492610720923392600401610fd4565b600060405180830381600087803b15801561073a57600080fd5b505af115801561074e573d6000803e3d6000fd5b5050604080514260208201526bffffffffffffffffffffffff193360601b16918101919091524460548201526000925061271091506074016040516020818303038152906040528051906020012060001c6107a9919061102a565b90508160c0015181101561087d5760035460a083015160608401516080850151604051635095307b60e01b81526000946001600160a01b031693635095307b936107f793339360040161103e565b6020604051808303816000875af1158015610816573d6000803e3d6000fd5b505050506040513d601f19601f8201168201806040525081019061083a9190611080565b604051600181529091508190859033907fdd21478d984e8f92b02bc7e9b6bc39e273acda4d65d6c79ac8efb8ac67c58cd59060200160405180910390a450505050565b604051600080825290849033907fdd21478d984e8f92b02bc7e9b6bc39e273acda4d65d6c79ac8efb8ac67c58cd59060200160405180910390a45b505050565b6000546001600160a01b031633146102ba5760405163118cdaa760e01b815233600482015260240161030a565b600080546001600160a01b038381166001600160a01b0319831681178455604051919092169283917f8be0079c531659141344cd1fd0a4f28419497f9722a3daafe3b4186f6b6457e09190a35050565b600061271061094b61138884611099565b61095591906110b6565b9050600061096382846110ca565b6001546004805460405163a9059cbb60e01b81526001600160a01b03918216928101929092526024820186905292935091169063a9059cbb906044016020604051808303816000875af11580156109be573d6000803e3d6000fd5b505050506040513d601f19601f820116820180604052508101906109e29190610f76565b5060015460055460405163a9059cbb60e01b81526001600160a01b0391821660048201526024810184905291169063a9059cbb906044016020604051808303816000875af1158015610a38573d6000803e3d6000fd5b505050506040513d601f19601f82011682018060405250810190610a5c9190610f76565b5060408051848152602081018490529081018290527fdaf6233a382145376035341e71f8a04305f7e323d0fe3e58c908cf0a26b76df99060600160405180910390a1505050565b828054828255906000526020600020908101928215610ade579160200282015b82811115610ade578251825591602001919060010190610ac3565b50610aea929150610aee565b5090565b5b80821115610aea5760008155600101610aef565b600060208284031215610b1557600080fd5b5035919050565b634e487b7160e01b600052602160045260246000fd5b60038110610b5057634e487b7160e01b600052602160045260246000fd5b9052565b6000815180845260005b81811015610b7a57602081850181015186830182015201610b5e565b506000602082860101526020601f19601f83011685010191505092915050565b858152610baa6020820186610b32565b83604082015260a060608201526000610bc660a0830185610b54565b90508260808301529695505050505050565b634e487b7160e01b600052604160045260246000fd5b604051601f8201601f1916810167ffffffffffffffff81118282101715610c1757610c17610bd8565b604052919050565b600082601f830112610c3057600080fd5b8135602067ffffffffffffffff821115610c4c57610c4c610bd8565b8160051b610c5b828201610bee565b9283528481018201928281019087851115610c7557600080fd5b83870192505b84831015610c9457823582529183019190830190610c7b565b979650505050505050565b600082601f830112610cb057600080fd5b813567ffffffffffffffff811115610cca57610cca610bd8565b610cdd601f8201601f1916602001610bee565b818152846020838601011115610cf257600080fd5b816020850160208301376000918101602001919091529392505050565b600080600080600080600060e0888a031215610d2a57600080fd5b873567ffffffffffffffff80821115610d4257600080fd5b610d4e8b838c01610c1f565b985060208a0135915080821115610d6457600080fd5b610d708b838c01610c1f565b975060408a0135965060608a0135915060038210610d8d57600080fd5b9094506080890135935060a08901359080821115610daa57600080fd5b50610db78a828b01610c9f565b92505060c0880135905092959891949750929550565b600060208284031215610ddf57600080fd5b81356001600160a01b0381168114610df657600080fd5b9392505050565b600181811c90821680610e1157607f821691505b602082108103610e3157634e487b7160e01b600052602260045260246000fd5b50919050565b601f8211156108b8576000816000526020600020601f850160051c81016020861015610e605750805b601f850160051c820191505b81811015610e7f57828155600101610e6c565b505050505050565b815167ffffffffffffffff811115610ea157610ea1610bd8565b610eb581610eaf8454610dfd565b84610e37565b602080601f831160018114610eea5760008415610ed25750858301515b600019600386901b1c1916600185901b178555610e7f565b600085815260208120601f198616915b82811015610f1957888601518255948401946001909101908401610efa565b5085821015610f375787850151600019600388901b60f8161c191681555b5050505050600190811b01905550565b634e487b7160e01b600052601160045260246000fd5b600060018201610f6f57610f6f610f47565b5060010190565b600060208284031215610f8857600080fd5b81518015158114610df657600080fd5b60008151808452602080850194506020840160005b83811015610fc957815187529582019590820190600101610fad565b509495945050505050565b6001600160a01b0384168152606060208201819052600090610ff890830185610f98565b828103604084015261100a8185610f98565b9695505050505050565b634e487b7160e01b600052601260045260246000fd5b60008261103957611039611014565b500690565b6001600160a01b038516815260806020820181905260009061106290830186610b54565b90506110716040830185610b32565b82606083015295945050505050565b60006020828403121561109257600080fd5b5051919050565b80820281158282048414176110b0576110b0610f47565b92915050565b6000826110c5576110c5611014565b500490565b818103818111156110b0576110b0610f4756fea264697066735822122030866bbf2ab0c11f5d61ec0d749fc6d6dcf4e17919c81d41f3fe492360b7b96564736f6c63430008180033",
  "linkReferences": {},
  "deployedLinkReferences": {}
}